:020000040800F2
:10000000080901209D010008A1010008A3010008C2
:10001000A5010008A7010008A901000800000000D0
:10002000000000000000000000000000AB0100081C
:10003000AD01000800000000AF010008551E0020BF
:10004000B3010008B3010008B3010008B3010008C0
:10005000B3010008B30100088909002091090020BC
:1000600095090020990900209D090020B30100088E
:10007000B3010008B3010008B3010008B301000890
:100080003D06002079060020B3010008B3010008F6
:10009000B3010008B3010008B3010008A109002062
:1000A000B3010008B3010008B3010008B301000860
:1000B000B3010008B3010008B3010008B301000850
:1000C000B3010008B3010008B3010008B301000840
:1000D000B3010008651E0020A91E0020B30100081E
:1000E0008D090020B3010008B3010008B301000826
:1000F000B3010008B3010008B3010008B301000810
:10010000B3010008B3010008B3010008B3010008FF
:10011000B3010008B3010008B3010008B3010008EF
:10012000B3010008B9060020FD060020B301000855
:10013000B3010008B3010008B3010008B3010008CF
:10014000B3010008B3010008B3010008B3010008BF
:10015000B30100083D07002089070020ED1E0020A4
:10016000B3010008B3010008B3010008B30100089F
:10017000B3010008B3010008B3010008B30100088F
:10018000B3010008FFFFFFFFDFF80CD000F014F808
:100190000048004761350020080901200548004754
:1001A000FEE7FEE7FEE7FEE7FEE7FEE7FEE7FEE727
:1001B000FEE7FEE789010008064C074D06E0E0680F
:1001C00040F0010394E8070098471034AC42F6D39E
:1001D000FFF7DEFFFC0100082C02000802E008C85F
:1001E000121F08C1002AFAD170477047002001E0B1
:1001F00001C1121F002AFBD1704700002C02000829
:1002000000000020243C0000DC010008503E0008F3
:1002100000800020C4020000AC050020CC3F000894
:10022000C482002044860000EC01000840BA7047F8
:10023000C0BA70474FF0010140EA01008047A0F1C9
:100240006101192900D82038704740EA01039B0753
:1002500003D009E008C9121F08C0042AFAD203E03B
:1002600011F8013B00F8013B521EF9D27047D2B29F
:1002700001E000F8012B491EFBD270470022F6E78F
:1002800010B513460A4604461946FFF7F0FF20460C
:1002900010BD10B5002200E0521C835C8C5CA342B0
:1002A00001D1002BF8D1D8B2E1B2401A10BD30B55F
:1002B00004460020034600E05B1C934203D2E05C4E
:1002C000CD5C401BF8D030BD30B50B460146002058
:1002D0002022012409E021FA02F59D4205D303FA08
:1002E00002F5491B04FA02F52844151EA2F1010289
:1002F000F1DC30BD2DE9F05F0546002092469B46BB
:1003000088460646814640241BE02846414647462B
:10031000224600F0E4F953465A46C01A914110D3E0
:1003200011461846224600F0CBF92D1A67EB01085A
:100330004F4622460120002100F0C2F917EB0009C8
:100340004E41201EA4F10104DFDC484631462A4616
:100350004346BDE8F09F2DE9FE4F804681EA030049
:10036000C00F0C46009021F0004123F00045B8EB8F
:100370000200A94105D24046214690461C460B4644
:10038000024623F00040104347D0270DC7F30A0070
:10039000C3F30A510290401A019040286BDAC3F36C
:1003A000130040F4801B0098924620B10023D2EB4A
:1003B000030A63EB0B0B01985946C0F1400250460B
:1003C00000F07EF906460D4650465946019A00F067
:1003D00096F910EB08006141002487EA115284EA83
:1003E000E7731A4340D0009A62B3019A012A4FEA98
:1003F000075215DC001B61EB02014FF0004202EADC
:100400000752CDE90042001C41F5801132462B46CF
:1004100000F094F903B0BDE8F08F40462146F9E7BB
:10042000001B61EB0201001C41F5801300185B41C9
:100430002018A2F5001747EB030140EAD570B61962
:100440006D4111E06D084FEA360645EAC0754FEA86
:100450000752001B61EB0201001C41F580114908A5
:100460004FEA30000019514132462B4603B0BDE837
:10047000F04F00F056B90098012240000023D0EB65
:10048000020263EBE073009821464FEAE074B8EB98
:10049000000061EB0401E9E783F000435BE781F0D2
:1004A000004158E72DE9FE4F81EA030404F00044BF
:1004B00021F0004100944FF0000B23F0004350EA7C
:1004C00001045ED052EA03045BD0C3F30A54C1F3C3
:1004D0000A552C44A4F2F3340194A0FB0254C1F356
:1004E000130141F48011C3F3130343F4801301FBA0
:1004F000024400FB034E840A970A44EA815447EA07
:100500008357A4FB076802958D0A05FB07854FEA10
:10051000932C04FB0C542705029D4FEA065847EA2A
:100520001637B5EB08056EEB070C870E920E47EAFF
:10053000811742EA8312A7FB0201B6EB0B0164EBC1
:1005400000042B0D43EA0C335E1844EB1C50DA46D2
:100550005146E7FB0201C5F313044FEA0B3343EAAC
:1005600014534FEA0432019C43EA0603A4F10C043D
:100570000294009CCDE900B400F0E0F803B0BDE8BF
:10058000F08F00200146F9E72DE9F04D81EA0304E0
:1005900004F0004B21F0004514464FF0000A23F010
:1005A000004150EA050220D054EA01021DD0C5F3F3
:1005B0000A570246C5F31303C1F31300C1F30A56E9
:1005C00040F4801543F48013A7EB0608101BD646B1
:1005D00008F2FD3873EB050002D308F1010801E0D1
:1005E00092185B41B8F1000F03DA00200146BDE824
:1005F000F08D00204FF48011064684460EE0171B54
:1006000073EB050705D3121B63EB050306434CEAA6
:10061000010C49084FEA300092185B4150EA01078B
:10062000EDD152EA030012D082EA040083EA050108
:10063000084305D0101BAB4106D20122002306E07F
:1006400000224FF0004302E06FF0010253101AEB5A
:1006500006004CEB085110EB0A0041EB0B01BDE822
:10066000F04D00F05EB8C1F30A52C1F3130140F23D
:10067000FF3341F480119A4202DA002001467047AC
:1006800040F233439A42A2F2334202DC524200F07B
:1006900026B800F015B8000030B5002904DB4FF093
:1006A0000044404264EB0101002B04DB4FF00044A6
:1006B000524264EB0303994208BF904230BD0000F0
:1006C000202A04DB203A00FA02F100207047914012
:1006D000C2F1200320FA03F3194390407047202A07
:1006E00004DB203A21FA02F00021704721FA02F3DC
:1006F000D040C2F120029140084319467047202A99
:1007000006DBCB17203A41FA02F043EAE07306E039
:1007100041FA02F3D040C2F1200291400843194649
:10072000704710B5002B08DA401C41F10001921807
:100730005B411A4301D120F0010010BD2DE9F04DBD
:1007400092469B4611B1B1FA81F202E0B0FA80F212
:1007500020329046FFF7B4FF04460F4640EA0A00F5
:1007600041EA0B0153465A46084313D0114653EA57
:10077000010019D0C8F140025046FFF7B0FF05460E
:100780000E46504659464246FFF79AFF084305D0A9
:10079000012004E020463946BDE8F08D00200543E5
:1007A00046EAE0762C4337430A986305E40AA0EB57
:1007B00008000022FD0A44EA47540A3002D500200E
:1007C0000146E9E7010510196941DDE9084500190D
:1007D0006941BDE8F04DA4E770B58C1810F8015BD5
:1007E00015F0070301D110F8013B2A1106D110F8CA
:1007F000012B03E010F8016B01F8016B5B1EF9D1CE
:100800002B0705D40023521E0DD401F8013BFAE753
:1008100010F8013BCB1A921C03E013F8015B01F8BE
:10082000015B521EF9D5A142D8D3002070BD002231
:10083000014402E010F8013B1A448842FAD3D0B2D6
:10084000704730B504460020651803E014F8011B1A
:1008500001F00AFDAC42F9D3002101F005FDBDE82D
:100860003040002101F000BD0C4841680A050C49E8
:1008700005D5826842F40062826000224A614268C3
:1008800012F4507F06D0826842F4507282604FF0BA
:10089000FF3048610120087270470000006002408C
:1008A000C4E700200D4900204A6893020C4A06D58F
:1008B000C86840F40010C8600020106101204B6837
:1008C00013F4502F07D0CB6843F45023CB6010B9FA
:1008D0004FF0FF30106101205072704700600240FD
:1008E000C4E700200D4A10680D4903050D4805D5E1
:1008F0000B6843F400630B600023C362126812F4B8
:10090000507F06D00A6842F450720A604FF0FF31FF
:10091000C162012180F8201070470000006402408D
:1009200008640240C4E700200C4A10680C498302A6
:100930000C4805D50B6843F400130B60002343619A
:10094000126812F4502F06D00A6842F450220A604E
:100950004FF0FF3141610121017270470064024094
:1009600008640240C4E700200F4B10B5196800204E
:100970008C020E4A0E4906D5106840F40010106033
:100980000020886201201B6813F4502F07D01368E1
:1009900043F45023136010B94FF0FF3088620120F8
:1009A00081F8210010BD0000046402400C64024084
:1009B000C4E700200E4B10B5196800200C010D4A49
:1009C0000D4906D5106840F00060106000200861F5
:1009D00001201B6813F0507F07D0136843F0507359
:1009E000136010B94FF0FF3008610120487210BD4C
:1009F000046402400C640240C4E70020002901683E
:100A000002D041F0010101E021F0010101607047D5
:100A10002DE9F043016821F001010160002101602E
:100A200041608160C1600161212141613C493C4AD2
:100A30003D251039904202D18D60BDE8F083384ADF
:100A40004FF474661832904201D18E60F5E7344A53
:100A50004FF474173032904201D18F60EDE7304A85
:100A60004FF0746C4832904202D1C1F808C0E4E7FC
:100A70002B4B2C4A6033984201D1CA60DDE7284CE9
:100A8000294B7834A04201D1CB60D6E7DFF89080C3
:100A9000264C08F19008404501D1CC60CDE7DFF845
:100AA00080804FF03D5908F1A808404502D1C1F8B7
:100AB0000C90C2E71E49DFF878800839404501D123
:100AC0000D60BAE71A4D1835A84201D10E60B4E79F
:100AD000174D3035A84201D10F60AEE7144D4835AF
:100AE000A84202D1C1F800C0A7E7114D10496035F6
:100AF000091FA84201D10A609FE70D4A783290424F
:100B000001D10B6099E70A4A9032904201D10C6002
:100B100093E7074AA83290428FD1C1F800908CE742
:100B2000106002403D000020400F002000003D20EA
:100B3000106402400B0607D5436912B143F08003ED
:100B400001E023F080034361802908D0002A026875
:100B500001F01E0101D00A4300E08A4302607047A1
:100B600030B50368124ACC6813400A682243D1E9C1
:100B700005452C432243CC6922430C6A22434C6A2C
:100B800022438C6A22434C6B22438C6B22431A43D0
:100B90000260426922F00703D1E90B2422431A4381
:100BA00042610A6942604A6882608968C16030BDFA
:100BB0003F801CF002F0F4BA02F0F2BA02F0F0BA90
:100BC00002F0EEBA02F0ECBA02F0EABA02F0E8BAC9
:100BD00001490860704700000C3C024070B50646B1
:100BE000002529B1012927D0022928D04FF44075CA
:100BF00000F0ACF808281ED1124C206820F4407098
:100C00002060206828432060206820F0F8002060E1
:100C1000206846F0020108432060206840F48030DC
:100C2000206000F093F8216821F002012160216822
:100C300021F0F801216070BD4FF48075D8E74FF4C2
:100C40000075D5E7103C02400B4908200A68D20322
:100C500001D5012070470A68D20601D505207047EA
:100C60000A6812F0EF0F01D0062070470968890763
:100C7000FBD50720704700000C3C02400248016889
:100C800041F0004101607047103C024005490028D6
:100C9000086802D040F4807001E020F480700860A1
:100CA00070470000003C024070B50D46064600F05B
:100CB0004DF8082811D1094C206820F440702060BC
:100CC00020682060206840F001002060357000F04E
:100CD0003DF8216821F00101216070BD103C024007
:100CE00070B50D46064600F031F8082813D10A4CBD
:100CF000206820F440702060206840F4007020607C
:100D0000206840F001002060356000F01FF8216885
:100D100021F00101216070BD103C024001490870C2
:100D200070470000003C024005480068002805DAD2
:100D3000034804490C380160034901607047000012
:100D4000103C024023016745AB89EFCD08B5082070
:100D50008DF80000FFF778FF8DF800009DF8000087
:100D60000128F7D09DF8000008BDF0B5002201274A
:100D70004FF0030C0B6807FA02F52B40AB422CD165
:100D8000066853000CFA03F4A64306600E79D0F807
:100D900000E09E4046EA0E0606600E79012E01D064
:100DA000022E12D18668A64386604E79D0F808E0FC
:100DB0009E4046EA0E0686604668AE434660456839
:100DC0008E799640B6B235434560C568A543C56087
:100DD000CC799C40C3681C43C460521C102AC9D300
:100DE000F0BD4B07DB0E9A40C90810B500EB81003F
:100DF000016A0F249C40A1430162016A1143016210
:100E000010BD0246002012690A4200D0012070473E
:100E1000418370470183704702494AF6AA2008605F
:100E20007047000000300040F0B500220D4B144622
:100E300015464FF00A0CB1FBF3F603FB161106F151
:100E400030078754B3FBFCF3521C861816F8016C6C
:100E5000302E00D124B1641C6D1C0A2DEBD3F0BDE3
:100E60000022F9E700CA9A3B72B607488168002958
:100E700006DC06490A6822F004020A60002181604B
:100E8000491C816062B670478C82002010ED00E042
:100E9000074972B68868401E8860002806DC05484D
:100EA000026842F0040202600020886062B6704767
:100EB0008C82002010ED00E02DE9F04FB9B08021C8
:100EC0000CA8FFF7DBF90027DFF8A893DFF8A8A349
:100ED000DFF8A8B3EA4E2C972D972E974FF00068B5
:100EE0002F97E8A001F06EFC80210CA802F018F901
:100EF00000240CAD00E0641C285D2028FBD003E03A
:100F0000FFF79DF92855641C285D0028F8D100E002
:100F1000401C295C2029FBD000212CAB05E0401CA3
:100F20005A542A5C491C202A02D02A5C002AF6D195
:100F30005F54D7A11846FFF7ACF9002874D0D7A1A9
:100F40002CA8FFF7A6F900286ED0D5A12CA8FFF792
:100F5000A0F9002867D0D5A12CA8FFF79AF900289E
:100F60007DD0D3A12CA8FFF794F900286FD0D4A18D
:100F70002CA8FFF78EF90028F8D0D2A12CA8FFF7F3
:100F800088F900287CD0D2A12CA8FFF782F900288C
:100F9000F8D0D0A12CA8FFF77CF9002871D0D0A1FF
:100FA0002CA8FFF776F90028F8D0CEA12CA8FFF7DF
:100FB00070F9002866D0CEA12CA8FFF76AF90028A6
:100FC000F8D0CCA12CA8FFF764F9002877D0CBA1EA
:100FD0002CA8FFF75EF90028F8D0C9A12CA8FFF7CC
:100FE00058F900286CD0C8A12CA8FFF752F90028A6
:100FF000F8D0C6A12CA8FFF74CF9002873D0C5A1E2
:101000002CA8FFF746F90028F8D0A7A12CA8FFF7D5
:1010100040F9002803D0C0A1C34801F0D3FB39B088
:10102000BDE8F08F00E01AE000231A46BFA10CA82B
:1010300002F021F8401C0BD0BDA001F0C3FB012041
:1010400000F036FB4FF48043C1A241461DE02DE085
:10105000C4A001F0B7FB4FF48042414622E00023D8
:101060001A46B2A10CA802F006F8401C14D0C5A084
:1010700001F0A8FB012000F01BFB4FF4A82302E0C5
:1010800032E04CE0CCE0C9A24946012000F042FF2A
:10109000012000F001FB24E7CAA001F093FB4FF40C
:1010A000A8224946012000F073FE1AE700231A46E1
:1010B0009EA10CA801F0DFFF401C0DD001E0C7E0AD
:1010C000CCE0C9A001F07EFB012000F0F1FA4FF462
:1010D0008023CDA25146D8E7CFA001F073FB4FF497
:1010E00080225146DEE7BFE000231A46D2A10CA8B9
:1010F00001F0C1FF401C0BD0D0A001F063FB012028
:1011000000F0D6FA5A46D749012000F09BFABFE713
:10111000D5A001F057FB4FF48042D249C2E700232B
:101120001A46DAA10CA801F0A6FF401C01D0012448
:1011300008E0C8230022D6A10CA801F09CFF401CA7
:1011400023D0002400250A2332AAD2A10CA801F042
:1011500092FF401C12D030A932A800F02DFFB0B190
:101160000A2335AACDA10CA801F085FF401C14D09C
:1011700031A935A800F020FF68B10125DDE9300173
:1011800081420CDA65B1C6A002E0CCA000E0D4A098
:1011900001F018FBA5E6DBA0FAE7E2A0F8E715B935
:1011A000BCB1CDE9308600231A46A3A10CA801F0FA
:1011B00062FF401C0FD0DDE93012E3A001F002FB1A
:1011C000204600F075FADDE93012204600F03AFAC8
:1011D00019E0E8A0DCE700231A4654A10CA801F0AE
:1011E0004AFF401C11D0DDE93012E8A001F0EAFA14
:1011F000204600F05DFADDE93010431A2046EEA2E9
:101200005B1C00F087FE204643E7DDE93012EEA0CC
:1012100001F0D8FADDE93010421A2046521C42E7AC
:10122000F549154AF6484968521ECDE90821F34AA6
:10123000CDE90612531E8B4A8DE80608CDE90493CA
:10124000CDE90AA6531E0391424601F0BBFA48E6D7
:10125000ECA001F0B7FA02F03FFB42E6EEA001F08D
:10126000B1FA00F01DFBDAE6F1A2F3A1F44801F0B7
:10127000A9FAD4E600C0000800000C08FF7F0008AF
:10128000FFFF0F080A0D4D58434849503E2000000B
:10129000424F4F5455504441544500003000000027
:1012A00046575550444154450000000031000000AD
:1012B000445249564552555044415445000000009F
:1012C0003200000050415241555044415445000005
:1012D00033000000464C41534855504441544500AA
:1012E000340000004D454D4F52594D415000000013
:1012F00035000000424F4F5400000000360000004F
:101300005245424F4F5400003700000048454C50B2
:10131000000000003F000000554E4B4E4F574E203E
:10132000434F4D4D414E4400448200207200000066
:101330000A0D5265616420426F6F746C6F61646561
:1013400072206F6E6C792E2E2E2E2E2E0A0D00001E
:10135000426F6F744C6F61646572496D6167652E91
:1013600062696E000A0D5570646174696E6720428F
:101370006F6F746C6F616465722E2E2E2E2E2E0A86
:101380000D0000000A0D52656164204D49434F2055
:101390006170706C69636174696F6E206F6E6C79D7
:1013A0002E2E2E2E2E2E0A0D000000004170706C85
:1013B00069636174696F6E496D6167652E62696EFC
:1013C000000000000A0D5570646174696E67204D5D
:1013D00049434F206170706C69636174696F6E2E50
:1013E0002E2E2E2E2E0A0D000A0D526561642052FB
:1013F0004620647269766572206F6E6C792E2E2E8F
:101400002E2E2E0A0D000000447269766572496D19
:101410006167652E62696E000A0D557064617469BA
:101420006E67205246206472697665722E2E2E2ECB
:101430002E2E0A0D00000000650000000A0D457206
:101440006173696E67204D49434F207365747469F9
:101450006E6773206F6E6C792E2E2E2E2E2E0A0D37
:1014600000000000004000080A0D557064617469B6
:101470006E67204D49434F2073657474696E6773BE
:101480002E2E2E2E2E2E0A0D0000000069000000C8
:10149000730000007374617274000000656E640074
:1014A0000A0D496C6C6567616C20666C617368201D
:1014B000616464726573732E0A0D00000A0D556E27
:1014C0006B6F776E207461726765742074797065D4
:1014D000212045786974696E672E2E2E0A0D000052
:1014E0000A0D496C6C6567616C20666C61736820DD
:1014F000737461727420616464726573732E0A0D73
:10150000000000000A0D496C6C6567616C20666C18
:1015100061736820656E6420616464726573732E04
:101520000A0D00000A0D466C61736820656E642028
:1015300061646472657373206E6F7420666F756E7C
:10154000642E0A0D000000000A0D45726173696E79
:101550006720666C61736820636F6E74656E7420BB
:1015600046726F6D203078257820746F2030782592
:10157000780A0D000A0D53504920466C61736820AB
:101580006E6F742065786973740A0D000A0D5265D8
:10159000616420666C61736820636F6E74656E743D
:1015A0002046726F6D203078257820746F20307857
:1015B00025780A0D00000000466C617368496D6172
:1015C00067652E62696E00000A0D5570646174696A
:1015D0006E6720666C61736820636F6E74656E74ED
:1015E0002046726F6D203078257820746F20307817
:1015F00025780A0D00000000BC82002000000608CB
:10160000D18000200A0D426F6F74696E672E2E2EF6
:101610002E2E2E2E0A0D00000A0D5265426F6F7499
:10162000696E672E2E2E2E2E2E2E0A0D0000000023
:101630003331363200000000454D57333136320029
:101640000080002070B5012801D0124870BDB1F1B2
:10165000006F02D3B2F1016F02D30E481E3070BD8D
:1016600008461646002501F04FF80446304601F0C2
:101670004BF8064609E002212046FFF7AFFA08289A
:1016800002D0044D0C3D02E00834B442F3D92846A0
:1016900070BD0000B1E5FFFF10B5012801D003487F
:1016A00010BDFFF7EBFA002010BD0000B1E5FFFF11
:1016B00010B5012801D0044810BDFFF735FBF32019
:1016C000FFF786FA002010BDB1E5FFFF70B51D469B
:1016D00013460C46012801D00B4870BD2068B0F1BC
:1016E000006F04D320682844B0F1016F02D9064886
:1016F0001E3070BD21682A461846FEF7A6FD2068F8
:1017000028442060002070BDB1E5FFFF30B41546CD
:101710000C46012802D00A4830BC70472068B0F15E
:10172000006F04D320681844B0F1016F02D9044857
:101730001E30F1E72946204630BC1A4601F04EBE65
:10174000B1E5FFFF2DE9FC410C460546FF2815D009
:10175000002000F07FF81D4F05EB450507EB8506DF
:101760000121B06800F0BCF902218DF8051044B1E8
:10177000012C06D0022C04D0012003E01448BDE85F
:10178000FC8100208DF80400032C01D0012000E032
:1017900000208DF8060001203CB1052C05D0012C5D
:1017A00000D000218DF8071001E08DF80700317995
:1017B000884080B2009057F825006946FFF7D5FAB7
:1017C000012000F047F80020D9E70000043A00208B
:1017D000B1E5FFFF10B50446FF2814D0002000F04B
:1017E00039F80A4A04EB440002EB800152F8200069
:1017F0000B790121994089B2FFF70CFB012000F021
:1018000029F8002010BD024810BD0000043A002055
:10181000B1E5FFFF10B50446FF2814D0002000F00A
:1018200019F80A4A04EB440002EB800152F8200048
:101830000B790121994089B2FFF7EAFA012000F003
:1018400009F8002010BD024810BD0000043A002035
:10185000B1E5FFFF012801D0FFF706BBFFF718BB7A
:1018600010B5072002F0BCF928B9082002F0B8F939
:1018700008B1012010BD002010BD10B5072002F0F6
:10188000AFF918B9082002F0ABF908B1002010BD7B
:10189000012010BD0A460146002001F0E5BD000010
:1018A000BFF34F8F04480168044A01F4E06111431B
:1018B0000160BFF34F8FFEE70CED00E00400FA0576
:1018C0002DE9FC5FDFF8ACB000EB40070BEBC70580
:1018D0008846696899461646F1BB44E06868016825
:1018E000B6EB510F01D94C0800E0344601F0E9FF96
:1018F000A0421BD24BF837400020287201F06AFF4B
:1019000000EB090A0CE001F065FF504508D3B9F17E
:10191000FF3F05D000204BF837001748BDE8FC9F7B
:10192000287A0028EFD000204BF83700361B6A4693
:1019300001A9686801F0AAFF009AA24200D32246DA
:10194000009240460199FEF780FC00996868641A8D
:10195000884401F091FF00E001E0002CE7D1002E67
:10196000BCD10020DAE702B04146BDE8F05F01F0EB
:1019700037BF0000C4E70020BEE5FFFF2DE9F047B8
:101980009046044600EB44022248894600EBC2061A
:101990004FF0FF3100203161FFF75CFFC4EBC40062
:1019A0001D4F00EB041507EB8504A06A016821F4C4
:1019B00080710160A16AC1F80480A16AC1F80C902D
:1019C00057F825000122802100F0D7FB57F82500A9
:1019D000402100F0C5FB0121A06AFFF70FF8707AE3
:1019E0000028FCD00020707257F8250001884906B5
:1019F000FCD50021A06AFFF701F857F82500002266
:101A0000802100F0BAFB0120FFF724FF3069BDE818
:101A1000F0870000C4E70020603B002030B50F23B2
:101A2000C27801780125FAB1144A126801F1E02167
:101A300002F4E062C2F5E062C2F30722C2F10404DC
:101A4000D3404278A24084781C401443220181F89C
:101A50000024007800F01F018D404009800000F153
:101A6000E020C0F8005130BD01F01F00854048095A
:101A7000800000F1E020C0F8805130BD0CED00E0A6
:101A80000249084302490860704700000000FA0557
:101A90000CED00E002490A6842EA800008607047E5
:101AA000007000400748016841F0040101600168CE
:101AB00041F0020101600448016841F00401016045
:101AC00030BF70470070004010ED00E0034A01464F
:101AD000002052680A4200D0012070470070004088
:101AE000044A0029116801D0014300E081431160DC
:101AF0007047000030380240044A0029116801D0C4
:101B0000014300E08143116070470000403802400B
:101B1000044A0029116801D0014300E081431160AB
:101B200070470000443802400248016841F080716B
:101B3000016070477438024070B5204B1968204C22
:101B400011F00C0104D01F4E042903D0082903D042
:101B500004601BE0066019E0184A121F1168C1F307
:101B60008055116801F03F0115B1B6FBF1F101E0BC
:101B7000B4FBF1F114681268C4F388146143C2F332
:101B80000142521C5200B1FBF2F1016019680F22B0
:101B900002EA11110C4A545C0168E14041601C6882
:101BA000072505EA9424145D21FA04F484601B6877
:101BB00005EA5333D25CD140C16070BD08380240A1
:101BC0000024F40080BA8C017C82002002460020B0
:101BD000510901290BD002290CD00849096802F0EB
:101BE0001F02012393400B4200D00120704703499C
:101BF0007439F3E70149091FF0E700007438024027
:101C00000248006800F00C007047000008380240ED
:101C1000034A116821F0F001014311607047000090
:101C200008380240024900220A700870704700001C
:101C300002380240034A116821F4E0510143116067
:101C40007047000008380240034A116821F46041DF
:101C500041EAC00010607047083802400149086638
:101C6000704700000000474241EA82115A0810B54F
:101C7000054B029C03EB02421143014341EA04601D
:101C80000249086010BD00000000FFFF0438024058
:101C9000034A116821F003010143116070470000FD
:101CA0000838024018B500204FF4A064009031209D
:101CB000FFF78CFF0099491C0091A14201D0002838
:101CC000F5D03120FFF782FF002800D0012018BD99
:101CD0000B4610B5014601220020FFF7F1FD002858
:101CE00001D04FF0FF3010BD2DE9F84F884600219C
:101CF0000546C8F80010924611466846FFF7E8FF0F
:101D00004FF0FF39B0BB9DF80010182914D006DC45
:101D1000012909D0022909D004292BD12EE041291B
:101D200016D0612926D113E0802601E04FF48066A9
:101D300001242970771D15E051466846FFF7C8FF5A
:101D4000C0B99DF80000182814D1C8F8009015E01B
:101D50000120BDE8F88F28195146FFF7B9FF48B9AF
:101D6000641CA4B2BC42F6D3A978687881F0FF0164
:101D7000884201D04846ECE7C8F800600020E8E758
:101D800010B5024901F076FD002010BD64820020EC
:101D9000FEB50D461AA11446064607C98DE8070090
:101DA0001AA000F00FFD23462A463146264800F0CF
:101DB000C1FA041E13DD25A000F004FD2E492FA05A
:101DC00000F000FD21466846FFF72EF82CA000F039
:101DD000F9FC694629A000F0F5FC2CA008E0601C85
:101DE00005D0A01C07D0E41C07D02BA000E031A038
:101DF00000F0E8FCFEBD3AA0FAE740A0F8E70000DA
:101E000020202020202020202020000057616974FD
:101E1000696E6720666F72207468652066696C65FC
:101E200020746F2062652073656E74202E2E2E2024
:101E30002870726573732027612720746F20616298
:101E40006F7274290A0D0000C48200200A0A0D2056
:101E500050726F6772616D6D696E67205375636351
:101E600065737366756C6C79210A0D0D0A204E61DD
:101E70006D653A2000000000C48600202573000034
:101E80000A0D2053697A653A2000000020427974D7
:101E900065730D0A000000000A0D4661696C6564F7
:101EA00020746F20726563656976652066696C656C
:101EB000210A0D000A0A0D54686520696D61676585
:101EC0002073697A65206973206869676865722084
:101ED0007468616E206D656D6F7279210A0D000066
:101EE0000A0A0D566572696669636174696F6E20CE
:101EF0006661696C6564210A0D0000000D0A0A41E3
:101F0000626F7274656420627920757365722E0A3F
:101F10000D000000F8B507461C4615460E460DA0FC
:101F200000F050FC4FF0FF33012269460020FFF71C
:101F3000C7FC9DF8000043280BD123462A463146B2
:101F4000384600F0DAFA08B108A000E012A000F06C
:101F500039FCF8BD53656C6563742052656365692F
:101F600076652046696C650A0D0000000A0D457211
:101F7000726F72204F63637572726564207768694F
:101F80006C65205472616E736D697474696E67203C
:101F900046696C650A0D00000A0D46696C6520757E
:101FA000706C6F61646564207375636365737366D9
:101FB000756C6C79200A0D0070B5002302781C4600
:101FC000302A04D14278782A0AD0582A08D06FF0F3
:101FD0002F05C25CAAB16B2A2AD04B2A28D02CE04C
:101FE000827802B30223C25C5AB1A2F14105052DE9
:101FF00009D9A2F16106052E05D91135092D06D999
:1020000030E00C6017E0A2F13006092E01D8303A1A
:1020100004E0052D01D8373A00E0573A5B1C02EB8B
:1020200004140B2BDFD301E00B2B00D3002070BD79
:102030001BB1A00207E00120F6E76D2A01D04D2A6E
:1020400003D113B120050860F5E7A2F13006092E8F
:1020500008D804EB840405EB44045B1C14440B2BEC
:10206000B7D3E3E70020DFE74FF0E0210428086959
:1020700003D020F004000861704740F00400FAE744
:102080000248C168491CC160FEF7C6BE8C820020B0
:102090000D4810B501884FF6FF72114301800B4CBB
:1020A0000B4A6068526C01685268891A8160216825
:1020B000002908D001F005FC2168884203D30120E3
:1020C00020720020206010BD00100140C4E70020F5
:1020D000603B00200D4810B501884FF6FF72114398
:1020E00001800B4C0B4A6068526C01685268891A77
:1020F00081602168002908D001F0E3FB2168884253
:1021000003D3012020720020206010BD0044004055
:10211000C4E70020603B00200E4810B501884FF650
:10212000FF72114301800C4C0C4AE069D2F8A020E8
:1021300001685268891A8160A169002908D001F0FC
:10214000C0FBA169884203D3012020720020A06156
:1021500010BD000000140140C4E70020603B0020D7
:10216000C943018070470029818902D041F40051A0
:1021700001E021F4005181817047002A828A01D058
:102180000A4300E08A438282704710B5C1F34213CC
:1021900001F01F040121A140012B07D0022B07D021
:1021A0001430002A026805D00A4304E00C30F8E736
:1021B0001030F6E78A43026010BD00007FB5044688
:1021C000008A0D46C98820F4405001432182A0892D
:1021D00041F20C618843A9882A8911436A89024324
:1021E0001143A181A08A20F44071A8890843A082EC
:1021F0006846FFF7A1FC1A48844202D0194884427D
:1022000001D1039800E00298A189090400EBC00104
:1022100001EB0010296801D5490000E08900B0FBFE
:10222000F1F06422B0FBF2F109010B096FF018051F
:102230006B4300EB8300A3891D044FF0320306D5E6
:1022400003EBC000B0FBF2F000F0070005E003EB89
:102250000010B0FBF2F000F00F00084320817FBDBA
:10226000001001400014014041F4807141F221024C
:1022700040004900CB0500D5401CC30300D55040A9
:10228000CB03F5D580B27047FEB505460120002688
:1022900028706E70FF20A870344603E02B19641C70
:1022A000D870A4B2085D08B1FF2CF7D92819C67000
:1022B00068461168FEF7B8FD0021241DA0B26B46E8
:1022C00004E0491C2A54401C89B280B25A5C002A9E
:1022D000F7D102E02E54401C80B28328FAD3FEBD11
:1022E0007FB5144608994FF48062914201D3154698
:1022F00000E08025A94200D329468EB2954201D143
:10230000022100E0012121706370D943A17033469E
:10231000E21C01A9FFF7DAF9AE4209D8F61C1A212E
:10232000B0B2ED1C02E02154401C80B2A842FAD3A6
:102330007FBD00002DE9FF4FADF2244D8046002007
:10234000CDF818041F46DDF82804FFF7B1F94FF067
:10235000000B5D465E46EA460024A1464FF4FA7241
:102360000DF21C416846FFF7BFFCA8B1012876D0EA
:10237000002E00DD6D1C052D72DD1820FFF700FD1D
:102380001820FFF7FDFCDDF82804FFF785F9002091
:102390000DF2344DBDE8F08FDDF81C240025B2F1BC
:1023A000FF3F07D042B19DF80100E1B2884207D05B
:1023B000152081E00620E4E70620FFF7E1FC81E03C
:1023C000DCB10AF103014046FDF73FFF42460DF242
:1023D0002C41DDF81C34DDF82804FFF797F9E8B349
:1023E0001820FFF7CDFC1820FFF7CAFCDDF8280401
:1023F000FFF752F96FF00100CAE79DF8030080B3C0
:1024000000200AF10301354E02E03254401C491C01
:102410000A780AB1FF28F8DD0023335418460DF579
:10242000816601E03254401C11F8012F202A01D0AE
:102430001028F7DB33540DF583613046FFF7BCFD00
:10244000DDF81814781C814211DD1820FFF798FC84
:102450001820FFF795FCDDF8280403E018E01DE0E4
:1024600029E011E0FFF718F94FF0FF3090E7DDF8B1
:102470002C14DDF82804CA19521EFFF7E3F80620D1
:10248000FFF77EFC432004E00620FFF779FC1DE007
:102490000620FFF775FC0126641C0FE01820FFF7EB
:1024A0006FFC1820FFF76CFCDDF82804FFF7F4F848
:1024B0006FF002006CE74320FFF762FCB9F1000FF8
:1024C0003FF44CAFBBF1000F3FF446AFDDF82804FA
:1024D000FFF7E2F8DDF818045AE70000C486002090
:1024E00070B50D460646002404E0305DFFF748FC59
:1024F000641CA4B2AC42F8D370BD2DE9FF4F002498
:10250000ADF2145D0F46254620460DF20C41135CDA
:102510000B54401CC0B2FF28F9D34FF0010A0DF54F
:10252000A46201A8FFF7B0FE4FF47A79832101A8D5
:10253000FFF7D6FFBAF1000F4FF080010DF1070051
:1025400007D0FEF77EF90646000AFFF719FCF0B245
:1025500001E0FEF76CF9FFF713FC49460DF20C5051
:10256000FFF7B6FB10B1641C85B103E09DF80C05C4
:102570000628F9D10A2C0BD24FF0010849460DF27A
:102580000C50DDF82055FFF7A3FB50E00A2CCDD30B
:10259000B2E0009508F0FF0301AA3946DDF8140502
:1025A000FFF79EFE4FF0000B8DF80CB55E464FF422
:1025B0008064A54200D28024E11C01A8FFF790FFAF
:1025C000BAF1000F21460DF1070008D0FEF739F9E6
:1025D0008146000AFFF7D4FB09F0FF0001E0FEF797
:1025E00026F9FFF7CDFB4FF47A710DF20C50FFF78F
:1025F0006FFB18B99DF80C05062804D0761CBBF1BA
:10260000000F11D009E0A542274405D908F10100C7
:102610002D1B1FFA80F800E000250A2E07D3F0B228
:102620000DF2245DBDE8F08F0A2EC0D3F7E7002D30
:10263000AFD1A8468DF80C552C464FF47A7704207C
:10264000FFF79EFB39460DF20C50FFF741FB18B91E
:102650009DF80C05062801D0641C75B30A2C4BD2DA
:1026600001208DF8040000258DF80580FF208DF8ED
:1026700006008DF80C852C46032001AE06F800807C
:10268000401CC0B28328F9D3B846832101A8FFF7C4
:1026900027FF8021F01CFEF7D4F80746000AFFF759
:1026A0006FFBF8B2FFF76CFB41460DF20C50FFF7E1
:1026B0000FFB28B1641CA5B107E00A2CBFD31BE0B7
:1026C0009DF80C050628F6D101250A2C14D2042009
:1026D000FFF756FB0A210DF20C50FFF7F9FA18B17B
:1026E00006E00A2CD1D307E09DF80C05062801D09E
:1026F000641C1DB10A2C04D3E0B291E70A2CE6D386
:10270000FAE700208CE7000001460020A1F10062FA
:102710004FF480439A4204D320480844984201D29F
:10272000082070471E480844984201D21020704784
:102730001C480844984201D2182070471A4808449F
:10274000B0F5803F01D22020704718484FF4003286
:102750000844904201D2282070471548084490420E
:1027600001D23020704713480844904201D23820EB
:10277000704711480844904201D2402070470F48EA
:102780000844904201D2482070470D4808449042C6
:1027900001D25020704758207047000000C0FFF75A
:1027A0000080FFF70040FFF70000FFF70000FEF792
:1027B0000000FCF70000FAF70000F8F70000F6F759
:1027C0000000F4F70FB4054B10B503A9044A0298B2
:1027D00000F0BAF810BC5DF814FB0000E52E0020F4
:1027E000648200202DE9FF5FDDE90220010DDDF8A4
:1027F00038B0024318D044F61050A1F2FF314143E3
:102800000D140F98012820D0A5EB0B00401C5FEAA7
:10281000000A4FF00004474EDFF81C91A0465046D6
:1028200016D5CAF1000728E00F98012443A2012819
:1028300008D0002100980F9BC0E90021C0E90243A5
:10284000BDE8FF9F6FEA0B01F4E7CBF10000DEE784
:10285000074612E0F80707D022463346404649466D
:10286000FDF720FE8046894622463346104619462B
:10287000FDF718FE04460E467F10002FEAD1DDE971
:102880000201BAF1000F42464B4602DAFDF70AFE9A
:1028900001E0FDF779FE04460E460022284BFDF7C5
:1028A000FBFE03D84FF0FF30014607E00022254B26
:1028B00020463146FDF74FFDFDF7D5FE102409E017
:1028C000002C0ADB0A220023FDF714FD019B3032A5
:1028D0001A55641E50EA0102F2D1641C019AC4F137
:1028E000110314440F9A012A03D0012208430DD189
:1028F0000AE0084304D000204FF0110B0F9080E74E
:10290000A3EB0B056D1E0DE05B4504DD4FF00002EF
:1029100005F1010504E003DA4FF00002A5F101051D
:10292000002AECD000980F99C0E90231C0E90045B7
:1029300086E70000000024400000F03F3000000067
:102940000000F0430000E03F2DE9FF4F95B09B46AB
:102950008946064600250FE2252877D10024274620
:10296000F84A0121059400E0044316F8013F203B9A
:1029700001FA03F01042F7D130782A2811D06FF015
:102980002F033078A0F13002092A16D8059A44F0B6
:10299000020402EB820203EB42021044761C059013
:1029A000EFE759F8042B0592002A03DA504244F469
:1029B0000054059044F00204761C30782E2816D17D
:1029C00016F8010F44F004042A280DD06FF02F02EE
:1029D0003078A0F13003092B09D807EB870302EB0D
:1029E0004303C718761CF3E759F8047B761C30784C
:1029F0006C280FD006DC4C2817D068280DD06A2828
:102A000014D104E0742810D07A280FD10DE044F4DA
:102A100000140AE044F4801401E044F44014727895
:102A2000824202D104F58014761C761C3078662828
:102A30000BD013DC582877D009DC002875D0452846
:102A4000F6D04628F4D047281AD19DE118E0632833
:102A500035D0642879D0652812D195E1702873D0DB
:102A600008DC6728F1D069286FD06E280DD06F2858
:102A700006D1B5E073282CD0752875D0782874D08D
:102A80005A46179990476D1C75E1C4F3025002280D
:102A900009D003280DD0D9F8001004280DD00D60FE
:102AA00009F1040967E1D9F80010EA17C1E90052F9
:102AB000F6E7D9F800100D80F2E70D70F0E719F88D
:102AC000041B8DF8001000208DF80100EA4601205B
:102AD00003E059F804AB4FF0FF3061074FF00001FD
:102AE00002D40DE008F101018846B9420FDA8045B1
:102AF000F8DB1AF808100029F4D108E008F1010108
:102B000088468142FADB1AF808100029F6D10598A8
:102B10005B46A0EB080721463846179A00F094FA66
:102B2000284400EB080507E04DE029E10DE01AF824
:102B3000010B5A4617999047B8F10108F7D25B4646
:102B400021463846179A13E142E00A220092C4F364
:102B500002524FF0000A022A08D059F804CB032A87
:102B60004FEAEC710AD00DE029E02AE009F10701F3
:102B700021F00702F2E802C1914609E00FFA8CFC4D
:102B80004FEAEC71042A03D14FFA8CFC4FEAEC7146
:102B9000002907DA0A460021DCF1000C61EB020192
:102BA0002D2202E0220504D52B228DF804200122DB
:102BB00003E0E20701D02022F7E7904659E00A211E
:102BC00002E010220DE010214FF0000A00910BE00E
:102BD00010224FF0000A44F004040827009203E09A
:102BE00008224FF0000A0092C4F30252022A05D0D4
:102BF00059F804CB0021032A08D009E009F10701A4
:102C000021F00702F2E802C1914605E01FFA8CFCB0
:102C1000042A01D10CF0FF0C4FF00008220728D540
:102C2000702806D0009B83F0100353EA0A0305D0F6
:102C30000EE040228DF80420012208E05CEA010247
:102C400006D030228DF804208DF80500022290462F
:102C5000009B83F0080353EA0A030AD15CEA0102ED
:102C600001D1620705D530228DF804204FF001080C
:102C70007F1E582804D034A003900EA802900DE0C7
:102C800036A0F9E753466046009AFDF733FB8446C9
:102C90000398825C0298401E029002705CEA010078
:102CA000F0D1029806A9081A00F1200A600702D59F
:102CB00024F4803400E00127574502DDA7EB0A0029
:102CC00000E0002000EB0A01009005984144401A02
:102CD0000590E00306D45B462146179A059800F05C
:102CE000B3F90544002706E001A85A46C05D1799CC
:102CF00090476D1C7F1C4745F6DBE0030CD55B4617
:102D00002146179A059800F09FF9054404E0302009
:102D10005A46179990476D1C0099481E009000294B
:102D2000F5DC08E0029802995A460078491C0291A5
:102D3000179990476D1CBAF10001AAF1010AF1DC64
:102D400065E100000928010030313233343536376F
:102D500038396162636465660000000030313233E7
:102D60003435363738394142434445460000000087
:102D700000F058F90544761C307800287FF4ECAD5B
:102D800019B02846BDE8F08F620700D4062709F184
:102D9000070222F0070CFCE80223E14603F000489A
:102DA0005FEA080C02D00FF2702C0DE05FEA045CC1
:102DB00002D50FF2682C07E05FEAC47C02D00FF264
:102DC000602C01E0AFF2700C4FF0FF3823F00043AD
:102DD000CDF850C065280CD006DC452809D046281F
:102DE0001DD047283DD13DE0662818D067287ED108
:102DF00038E00021112F01DB112000E0781CCDE923
:102E0000000106A90EA8FFF7EDFCDDE90F010E9AFF
:102E100003910021009207F1010A04914DE04FF067
:102E200000400097CDE9011006A90EA8FFF7DAFCD3
:102E3000DDE90F0203920E9B11990022DDF80CA030
:102E40000093049211B9791C00EB010AB7EB0A0058
:102E500004D4C0F1FF3007F1010A0490AAEB070087
:102E6000019044E0012F00DA01270021112F01DD3C
:102E7000112000E03846CDE9000106A90EA8FFF7B1
:102E8000B1FCDDE90F010E9A03910021049100923B
:102E9000BA4621070CD40399514500DA8A46BAF1A3
:102EA000010F05DD009AAAF10101515C302908D01B
:102EB000B84202DA10F1040F06DA0121CDE901105F
:102EC00015E0AAF10101E9E7002805DC04990144B5
:102ED0000491AAEB000102E0411C514500DD8A4645
:102EE0000499401A401C01904FF0004002902007C6
:102EF00004D40198504501DBCDF8048000208DF802
:102F00004F0002980DF14F07B0F1004F25D02B2054
:102F10000E9002984FF0020800280CDA404202900E
:102F20002D200E9007E00A210298FDF7CDF93031EF
:102F3000029007F8011DB8F10001A8F10108F2DCC8
:102F400002980028EFD1791E0E980870307800F0B2
:102F5000200040F0450007F8020D12A8C01B00F148
:102F600007081498007800B1012000EB0A010198CD
:102F700001EBE07105984144401A401E0590E003C2
:102F800006D45B462146179A059800F05DF8054483
:102F90001498007818B15A46179990476D1CE003B1
:102FA00024D55B462146179A059800F04DF8054454
:102FB0001CE00498002807DBDDE90301884203DDFB
:102FC0000098405C179901E0179930205A469047C5
:102FD000049805F10105401C04900198401E0190E1
:102FE00004D12E205A46179990476D1CBAF1000162
:102FF000AAF1010ADDDC05E017F8010B5A46179922
:1030000090476D1CB8F10001A8F10108F4DC5B46A3
:103010002146179A0598ABE62D0000002B00000012
:10302000200000002DE9F041044600251E46174609
:10303000880404D405E039462020B0476D1C641E86
:10304000F9D52846BDE8F0812DE9F0410446002578
:103050001E469046C80301D5302700E0202788048B
:1030600004D505E041463846B0476D1C641EF9D5CD
:103070002846BDE8F0812DE9F047002799469046A3
:103080000E4604467D1E03E0FDF7D9F8F0557F1C7F
:10309000F05D0028F8D115E02D2912D1421C002145
:1030A00004E0A75C9F4205D1491C521C735C002BB5
:1030B000F7D102E013F0FF0F03D1A15C20290DD05E
:1030C00061B1401C215C0029E6D1B8F1000F02D0AB
:1030D000002108F805102846BDE8F0870025521C9D
:1030E000A05C2028FBD000200CE0B8F1000F01D03C
:1030F00008F800106D1C4D45E7D0521C401CA15C27
:103100002029E2D0A15C0029DFD02D29EDD1DCE718
:1031100013B5012269460020FEF730FC00981CBD63
:10312000F8B50024671E05464E1E3B46012269463F
:103130000020FEF7C5FB9DF800000D2818D00828D8
:103140001AD07F2818D0112808D0132806D0C0B272
:103150002870124900F08EFB641C6D1CB44203DA27
:103160009DF800000A28E0D1002005F8010CF8BD08
:103170000A208DF80000EAE7002CEFD0074908206C
:10318000641E6D1E00F076FB0449202000F072FBE7
:103190000249082000F06EFBE0E700006482002096
:1031A00023480068234B00F03F001038092819D04D
:1031B00008DC062810D0072811D0082836D10420B2
:1031C000022127E00A2810D0172811D028282DD155
:1031D0004FF480600A211AE0012000211AE0022049
:1031E000012117E00820032114E01020042111E040
:1031F0002020052103E04000491C0A290AD21A6850
:103200000242F8D006E04000491C102902D21A6898
:103210000242F8D01860084801EB410100EB81013F
:103220004868002802D0886849680847704700004D
:1032300004ED00E0143C014044E8002010B50121F9
:103240000807FEF759FC0220FEF740FC38B17D204C
:10325000FEF7BCFC18B1FEF767FCFEF723FC02206A
:10326000FEF718FC1C4C2078012833D00020FF21E9
:1032700000F1E02282F80014401CC0B25128F7D3BC
:103280004FF44070FEF7FCFB14494022A1F11000FE
:1032900000F010FB114912481039FEF7FBFA1148F3
:1032A0004FF47A710068B0FBF1F0B0F1807F0DD27D
:1032B00020F07F414FF0E020491E41610A4AF02191
:1032C00082F8141D0021816107210161FDF7CCFD09
:1032D0000120207010BD00008C82002004E8002036
:1032E000F8390020688200200FE000E008B50120D6
:1032F000FEF798FCFEF7D6FC0020FEF789FC4FF4A1
:103300008050FEF7A1FC4FF4A050FEF793FC032081
:10331000FDF704FD0120FDF7B9FC05200223009014
:10332000F0221A215805FEF79FFC0120FEF796FCBB
:103330003920FEF74BFC0028FAD00220FEF7A8FC4B
:10334000FEF75EFC0828FBD1BDE808400420FEF72C
:103350008BBE704710B503210520FEF7F3F9052059
:10336000FEF758FA04210620FEF7ECF90620FEF7D6
:1033700031FA00210720FEF7E5F90221BDE81040EF
:103380000820FEF7DFB900002DE9F0470025904640
:10339000894604462F464FF0016A14E019F805608B
:1033A00020683146FDF780FC082801D00A4F0FE065
:1033B00020680078B04202D0074F223708E020682A
:1033C000401C20606D1C454502D220685045E5D365
:1033D0003846BDE8F0870000A5E5FFFF2DE9F0477E
:1033E0000446006817460E46002580070ED0206868
:1033F00000F00300C0F10400804602462046FFF7BB
:10340000C3FF00280ED1A7EB08074644DFF8509011
:1034100015E056F8258020684146FDF761FC082834
:1034200002D01048BDE8F08720680168414502D00D
:103430000C482230F6E72068001D20606D1CB5EBBB
:10344000970F02D221684945E3D9684207EB800211
:1034500006EB85012046BDE8F047FFF795BF000069
:10346000FCFF0F08A5E5FFFF2DE9F74F98B00D46CB
:103470001898C34900EB4000169001EBC0004FF0D4
:1034800000081746814680F8098080F80880404689
:10349000FEF7E0F91898C0EBC00101EB0016B9483F
:1034A00000EB8604E068A168806889680843012110
:1034B000FEF716FBA0684FF0020B4FF0010A0279ED
:1034C0008DF840B00AFA02F18DF842800F918DF824
:1034D00043808DF841B000680FA9FDF746FCA06855
:1034E000227901790068FDF77CFCE06802798DF8AB
:1034F00040B00AFA02F10F918DF842A08DF8438096
:1035000000680FA9FDF731FCE068227901790068B5
:10351000FDF767FC2069E8B3E979012901D00329A7
:103520001AD180680121FEF7DBFA206902798DF853
:1035300040B00AFA02F10F918DF842A08DF8438055
:1035400000680FA9FDF711FC206922790179006854
:10355000FDF747FC2069E8B1E879022801D003288B
:103560001BD1606901218068FEF7BAFA60690279AF
:103570008DF840B00AFA02F10F918DF842A08DF853
:10358000438000680FA9FDF7F0FB6069227901799B
:10359000006800E001E0FDF724FCD4E90602012107
:1035A0009047ADF85280286812902879042803D0FB
:1035B000032804D1687910B14FF4805000E0002056
:1035C000ADF84C00A87908B14FF40050ADF84E00AA
:1035D00069796D4881B1012910D002297ED1490253
:1035E000ADF85010E97961B101290DD002290ED052
:1035F000032973D108020CE04146F1E74FF4C061A2
:10360000EEE7ADF8548006E04FF4007001E04FF4AF
:103610008070ADF854005B4812A950F82600FEF700
:10362000CDFDD4E90D0201219047D4E91402012116
:1036300090474FF48061CDE905814FF44031CDE9E9
:103640000A180321CDE90C18CDF838802879C34633
:10365000042876D05846CDF81CB00890DFF82481B5
:10366000A06AFDF7D5F9206B009058F826005D465A
:10367000001DCDE9010B4020CDE9030BCDF824B0AE
:103680006946A06AFDF76CFA606CFDF7C1F9E06C61
:10369000009058F826006946001DCDE90105049503
:1036A00003950995606CFDF75BFA94F83C008DF882
:1036B00044004FF0050B8DF845B008208DF846000A
:1036C0008DF847A011A8FEF7A9F901229621A06A5A
:1036D000FDF730FA58F82600012200E04DE04021C5
:1036E000FEF74BFD94F820008DF8440006208DF87D
:1036F000450007208DF846008DF847A011A8FEF779
:103700008DF958F826000121FEF72DFD58F8260006
:10371000818941F00801818158F82600818941F0B2
:103720000401818197B1C9F80470154816990023E6
:1037300040F831503A68F968189800F051F818E0EC
:10374000FFE74FF400600790800086E794F8580088
:103750008DF844008DF845B008208DF846008DF8AE
:1037600047A011A8FEF75AF901229621606CFDF7D7
:10377000E1F90120FEF76EF800201BB0BDE8F08FE4
:10378000C4E70020603B0020CFE5FFFFFFF7AEFD60
:10379000FFF7DFFDFFF752FDFFF7DCFD00F0BEF89D
:1037A000FEF75EF810B1FEF768F808B100F094F883
:1037B00003A205A10648FFF705F8FDF77DFBFCE72E
:1037C0003331363200000000454D57333136320078
:1037D000008000200148C068704700008C820020F3
:1037E0002DE9F04188461746204900EB40021D466E
:1037F00001EBC2041E4BC0EBC00101EB001103EB57
:1038000081066268706C5AB1026842F4807202608C
:1038100053F82100012240F22551FEF7B6FC03E0E7
:10382000016821F4807101604FF0FF306061706CBD
:103830004760716CC1F80C80706C016841F0010147
:1038400001604FF00000002D0ED02072FFF7C2FF84
:10385000461905E0FFF7BEFFB04201D3681C02D154
:10386000207A0028F6D06069BDE8F081C4E7002026
:10387000603B0020FFF74CBC426811440268B1FB7A
:10388000F2F302FB131141600020704730B5D0E91C
:103890000034C5681B1B2C440C6081680068194407
:1038A000B1FBF0F400FB1410984200D8034600204E
:1038B000136030BDC1600021C0E90021816008466D
:1038C0007047D0E9001280688A1A1044B0FBF1F208
:1038D00001FB1200704700004FF0E0210C480A691C
:1038E00022F001020A6101680A4A4FF000531140B8
:1038F000994200D0084801681140994206D1011D43
:10390000006880F308880868FCF794BC70470000E2
:1039100000C000080000FE2F00C200082DE9F04F93
:1039200089B00120FDF7C4FE4FF48057FF223946CD
:103930007A48FCF79CFCFF2239467948FCF797FC53
:10394000FF22B9007748FCF792FCDFF8E0A1DFF82E
:10395000D881CDE9078A18236A4608A90120FDF716
:10396000B5FEDFF8CC9104002ED1684600F0E8F8EF
:1039700002282AD060260025B54201D1002300E0AC
:103980003B46664A07A90120FDF7A0FE0400EBD1E3
:1039900062490A5CFF2A11D00120FDF789FE04006C
:1039A000E2D1644A41460120FDF74CFE04000BD1F0
:1039B0000120FDF771FE040006D102E0401CB84270
:1039C000E7D36D1CB542D7D99CE0D9F80400069026
:1039D000554807904E4699F80000FDF769FE04002F
:1039E00063D1D6E901123078FDF72CFE04005CD1DA
:1039F000019800254FEA1038DFF83CB157E02CD190
:103A00000198000529D00198444AC0F30B0307A987
:103A10000120FDF75BFE040074D13078FDF748FE0D
:103A200004006FD101983D4AC0F30B0306A930781A
:103A3000FDF76CFE040065D10198394AC0F30B0311
:103A4000069806A9C01A06903078FDF73FFE0400DC
:103A500058D10198C0F30B0221E03B462F4A07A939
:103A60000120FDF733FE04004CD13078FDF720FE35
:103A7000040047D13B46294A06A93078FDF746FEA7
:103A800004003FD106983B46A0F580500690244A9A
:103A900006A93078FDF71AFE040033D13A462049D2
:103AA0001E48FCF704FC08B15C462BE06D1C454544
:103AB000A5D94FF48046554633461A4A08A94FF017
:103AC0000100CDF820A0FDF701FE04001AD1FF226D
:103AD00018211448FCF7CBFB184A29460120FDF7B2
:103AE000B1FD04000ED133460E4A08A90120089505
:103AF000FDF70CFE040005D10E4A0B490120FDF72D
:103B0000A1FD04460120FDF7C7FD99F80000FDF76F
:103B1000C3FD09B02046BDE8F08F0000C487002037
:103B2000C4970020C4A70020000006080040000839
:103B300058820020FFFF0B08A5E5FFFFFF7F00086C
:103B40000021425CFF2A02D1491C1829F9D3182907
:103B500004D0417C552903D00320704701207047D1
:103B6000194A0168914201D006207047017C012367
:103B7000164A422905D041290ED0442917D00420E5
:103B800070474FF0006151601149916013704068B7
:103B9000B0F5804F14D815E00E4951600A49491E0E
:103BA000916013704068B0F5A82F09D80AE00A495F
:103BB00051600A49916013704068B0F5802F01D9B7
:103BC0000520704702207047000006085882002038
:103BD000FF3F000800C0000800000C08FFFF0F08AE
:103BE00010B50446FF2812D00020FDF733FE0C4A22
:103BF00004EB440002EB800152F820000B79012114
:103C0000994089B2FDF7FDF818B1012402E00120C6
:103C100010BD00240120FDF71DFE204610BD000050
:103C2000043A002000C20100030000000000000070
:103C300000000240080000000100000000040240F3
:103C40000C00000002000000000402400D00000013
:103C50000200000000080240010000000400000013
:103C600000080240050000000400000000040240BB
:103C700000000000020000000004024001000000FB
:103C800002000000000402400100000002000000E9
:103C90000004024009000000020000000000024091
:103CA00001000000010000000004024006000000C6
:103CB00002000000000402400700000002000000B3
:103CC000000802400700000004000000000002405D
:103CD0000400000001000000000002400400000099
:103CE0000100000000040240030000000200000088
:103CF0000004024004000000020000000004024032
:103D0000050000000200000000040240080000005E
:103D10000200000000080240020000000400000051
:103D2000000402400E0000000200000000080240F3
:103D30000600000004000000000002400F00000028
:103D400001000000000402400B000000020000001F
:103D5000000002400C0000000100000000000240D2
:103D60000B000000010000000000024009000000FC
:103D700001000000000002400A00000001000000F5
:103D8000000002400000000001000000001001409F
:103D9000070000003C3B0020483B0020303B002057
:103DA000243B002010000000E51800202500000042
:103DB00000640240B86402400700000000000008F0
:103DC00000004000B51800204600000000640240DA
:103DD00040640240020000000000000800004000B3
:103DE000B51800203A00000000140140080000004F
:103DF000003B0020943A002000000000000000007A
:103E000020000000E5180020470000000064024088
:103E1000A0640240000000000000000A0000400012
:103E2000B5180020450000000064024028640240EC
:103E3000000000000000000A00004000B51800204B
:103E400039000000496E7465726E616C00000000FC
:103E5000182D0D0A4D49434F20426F6F746C6F61EE
:103E600064657220666F722025732C20484152448D
:103E7000574152455F5245564953494F4E3A17B83C
:103E80001A0D0A303A424F4F545550444154452080
:103E90003C2D723E0D0A313A465711B809323A4468
:103EA0005249564552159F333A50415241131C3CDA
:103EB0002D65175808343A464C4153481819191AB9
:103EC00069193A731D292519112E737461727411C1
:103ED0001B6E6430380F353A4D454D4F52594D41A8
:103EE000500D0A368D4F0D0A373A52450A110D1101
:103EF0000D0A2B2A013A20E7C80B466C6173682033
:103F00004D6170201E1A2B36280E2D2D20436F6E0A
:103F100074656E74202D2D0E492D490C2A53841979
:103F20000C290D2E2D20456E640C1A2D3718147C8B
:103F300020426F6F746C6F6164657220207C202555
:103F40003873069F307825303878092929180A53A4
:103F5000657474696E67732001091B29080C1C4184
:103F600070706C69636174696F6E291C4F54419A5B
:103F70000E1C6F72616765292808524620447269D9
:103F800076A3091A2929DD8901990EB919C90D13DA
:103F90000D0A0012140A0D2A2A2A204552524F52A5
:103FA0003A2025730A0D840E2707680901020304CD
:103FB000060708090CA910C132032A022471290C32
:0C3FC00032043208721013183C0200207A
:040000050800018965
:00000001FF
